:100000000C94D7000C94F4000C94F4000C94F400BD
:100010000C94F4000C94F4000C94F4000C94F40090
:100020000C94F4000C94F4000C94F4000C94F40080
:100030000C94F4000C94F4000C94F4000C94F40070
:100040000C94F4000C94F4000C94F4000C94F40060
:100050000C94F4000C94F4000C94F4000C94F40050
:100060000C94F4000C94F4000C94F4000C94F40040
:100070000C94F4000C94F4000C94F4000C94F40030
:100080000C94F4000C94F4000C94F4000C94F40020
:100090000C94F4000C94F4000C94F4000C94F40010
:1000A0000C94F4000C94F4000C94F4006E616E0057
:1000B000696E660000407A10F35A00A0724E18096B
:1000C0000010A5D4E80000E87648170000E40B54BF
:1000D000020000CA9A3B000000E1F505000080968E
:1000E0009800000040420F000000A08601000000C0
:1000F000102700000000E80300000000640000007A
:1001000000000A00000000000100000000002C7642
:10011000D888DC674F0823DFC1DFAE59E1B1B7965D
:10012000E5E3E453C63AE651997696E8E6C28426BA
:10013000EB898C9B62ED407C6FFCEFBC9C9F40F296
:10014000BAA56FA5F490055A2AF75C936B6CF96712
:100150006DC11BFCE0E40D47FEF520E6B500D0EDD7
:10016000902E0300943577050080841E080000203F
:100170004E0A000000C80C333333330F986E1283DD
:100180001141EF8D2114893BE65516CFFEE6DB18B1
:10019000D1844B381BF77C1D901DA4BBE424203276
:1001A00084725E228100C9F124ECA1E53D2711246F
:1001B0001FBECFEFDAE0DEBFCDBF13E0A0E0B1E0BD
:1001C000E6E7FBE202C005900D92A233B107D9F732
:1001D00015E0A2E3B3E001C01D92A838B107E1F732
:1001E0000E9498090C94B9150C940000613011F428
:1001F0002D9801C02D9A90E087FF02C02E9A01C071
:100200002E988F988F9A9F5F983011F0880FF4CFB7
:100210000895CF93DF938CE061E00E94F60080E8C0
:1002200061E00E94F600C0E0D0E080E060E00E9463
:10023000F600219681E0C83FD807B9F7DF91CF914A
:1002400008955F982C9882E0982F9A95F1F72C9A50
:100250008A95F1F781E261E00E94F60088EC61E0A6
:100260000E94F60086E061E00E94F60083E161E012
:100270000E94F60080E261E00E94F6008CE061E0FE
:100280000E94F6000E94090108951F93182F862FDF
:10029000806461E00E94F600812F806861E00E9426
:1002A000F6001F9108951F93142F0E9445012D9A67
:1002B00080E017FF02C02E9A01C02E988F988F9A67
:1002C0008F5F883011F0110FF4CF1F9108950F93B5
:1002D0001F93CF93DF93805225E0829F80011124EA
:1002E00000501F4F90E00196EC01CC0FDD1FCC0FAA
:1002F000DD1FC80FD91FC050DF4FF80181918F015A
:1003000060E00E94F6000C171D07B9F780E060E07E
:100310000E94F600DF91CF911F910F910895CF9326
:10032000DF93EC0103C00E94670121968881882336
:10033000D1F7DF91CF91089580E480937C0087E826
:1003400080937A00089590917C008770892B809328
:100350007C0080917A00806480937A0080917A009A
:1003600084FFFCCF80917A00806180937A00209195
:10037000780030917900C90108958EE880BB8CE740
:1003800084B98CEF8AB9089580E00E94A3018A3F66
:10039000910518F484E690E011C080E00E94A3016A
:1003A0008050924018F488EC90E008C080E00E94F1
:1003B000A3018E5E924038F484EF91E090933A036B
:1003C00080933903089580E00E94A30180509440F7
:1003D00030F480E293E090933A03809339030895D8
:1003E00090913B03809142038F5F890F809342037A
:1003F000809140038F5F890F809340038A3019F406
:100400001092400305C08B3041F481E0809340039B
:10041000809141038F5F8093410380E060E00E9400
:10042000450180914103805D0E94670180914003F6
:10043000805D0E946701089580E060E00E944501B0
:1004400080EE92E00E948F0180E061E00E94450111
:100450008EEE92E00E948F0180E063E00E944501F1
:100460008BEF92E00E948F0180E064E00E944501E2
:1004700089E093E00E948F010895EF92FF920F931D
:100480001F93CF93DF9380E00E94A30120913C0350
:1004900030913D03820F931F0E94DA130E94D513FF
:1004A0006BE170E00E9426130196AA2797FDA095A4
:1004B000BA2FBC01CD010E94C8110E94B7120E9440
:1004C0009A1160932B030E94D51360E170E00E94A3
:1004D00026130196AA2797FDA095BA2FBC01CD013E
:1004E0000E94C8110E94B7120E949A11F62E6093C2
:1004F0004403E0902B036AE16E1580F28FE08F15C4
:1005000068F263E06F1550F6EE2041F280918705A6
:10051000682F70E061507040AFE5B5E020E030E05A
:1005200040E050E00E2D10E0CF2DD0E015C0F901D5
:10053000EF5BFA4F8081992787FD9095801791078F
:1005400041F48D919C9111978C179D0711F44F5F89
:100550005F4F2F5F3F4F12962617370744F3411521
:10056000510509F09BCF80913B038130B1F581E0CB
:1005700090E02E2D30E02817390729F467E0F616B1
:1005800011F44F5F5F4F01968D309105A1F7411532
:10059000510501F52817390729F46CE0F61611F416
:1005A0004F5F5F4F01968B319105A1F741155105C2
:1005B00089F420E030E06F2D70E081E1E81629F445
:1005C0006217730711F44F5F5F4F2F5F3F4F273064
:1005D000310599F7452B09F061CFDF91CF911F913C
:1005E0000F91FF90EF9008955F926F927F928F929C
:1005F0009F92AF92BF92CF92DF92EF92FF920F93B2
:100600001F9393E0899FA0011124542E5A946330C4
:1006100051F0663009F474C06B3009F4EAC06E30F2
:1006200009F0CAC15AC1252D30E0C90102976C01F9
:10063000CC0CDD1CC80ED91ECC0CDD1C89E493E06B
:10064000C80ED91ED6018C918F738C93C901019766
:100650007C01EE0CFF1CE80EF91EEE0CFF1CE9E419
:10066000F3E0EE0EFF1ED7018C918F738C938901FE
:10067000000F111F020F131F000F111F0E0F1F1F5E
:10068000F80180818F738083D60111968C91119728
:100690008E7F11968C93F70181818E7F8183D801A3
:1006A00011968C9111978E7F11968C938DEFA82EB9
:1006B000A40E8A2D60E0F60140810E945301B52C02
:1006C000BA948B2D60E0D7014C910E945301852D87
:1006D00060E0F80140810E9453018A2D61E0D6015B
:1006E00011964C910E9453018B2D61E0F7014181DD
:1006F0000E945301852D61E0D80111964C91C7C12C
:10070000252D30E0C90102976C01CC0CDD1CC80E10
:10071000D91ECC0CDD1CF601E75BFC4F81818F7785
:100720008183C90101977C01EE0CFF1CE80EF91EC4
:10073000EE0CFF1C69E4862E63E0962E8E0C9F1C47
:10074000D40111968C9111978F7711968C93890112
:10075000000F111F020F131F000F111F29E4A22EFB
:1007600023E0B22EA00EB11ED50111968C911197E7
:100770008F7711968C938BE493E0C80ED91ED60127
:100780008C918C7F8C938BE493E0E80EF91ED7015B
:100790008C918C7F8C93055B1C4FD8018C918C7F46
:1007A0008C93ADEF6A2E640E862D61E041810E942C
:1007B0005301752C7A94872D61E0F40141810E94E8
:1007C0005301852D61E0D50111964C910E94530192
:1007D000862D62E0F60140810E945301872D62E080
:1007E000D7014C910E945301852D62E0F8014081B0
:1007F0004EC1252D30E0C90102976C01CC0CDD1CE7
:10080000C80ED91ECC0CDD1C89E493E0C80ED91E9D
:10081000D60113968C9113978F7313968C93C901FD
:1008200001977C01EE0CFF1CE80EF91EEE0CFF1C7C
:10083000E9E4F3E0EE0EFF1ED70113968C911397B7
:100840008F7313968C938901000F111F020F131FD2
:10085000000F111F0E0F1F1FF80183818F738383F9
:10086000D60114968C9114978E7F14968C93F70171
:1008700084818E7F8483D80114968C9114978E7F07
:1008800014968C938DEFA82EA40E8A2D63E0F601AA
:1008900043810E945301B52CBA948B2D63E0D7019C
:1008A00013964C910E945301852D63E0F80143811A
:1008B0000E9453018A2D64E0D60114964C910E9447
:1008C00053018B2D64E0F70144810E945301852D73
:1008D00064E0D80114964C91DAC0252D30E0C901AE
:1008E00002976C01CC0CDD1CC80ED91ECC0CDD1C93
:1008F000E9E4F3E0CE0EDF1ED60114968C91149736
:100900008F7714968C93C90101977C01EE0CFF1C24
:10091000E80EF91EEE0CFF1CEE0EFF1EF70184819F
:100920008F7784838901000F111F020F131F000F9F
:10093000111F075B1C4FD80114968C9114978F7769
:1009400014968C93F60185818C7F8583D70115964B
:100950008C9115978C7F15968C93F80185818C7FEF
:1009600085833DEFA32EA40E8A2D64E0D601149654
:100970004C910E945301B52CBA948B2D64E0F70181
:1009800044810E945301852D64E0D80114964C9156
:100990000E9453018A2D65E0F60145810E945301B2
:1009A0008B2D65E0D70115964C910E945301852D42
:1009B00065E0F80145816BC0699F80011124C80181
:1009C000039768E070E00E942613882777FD8095E2
:1009D000982F0E94C8110E94B7120E949A11C62E29
:1009E00070E0CB0123E0880F991F2A95E1F7081BDF
:1009F00009F0035027E030E002C0220F331F0A95B0
:100A0000E2F72095452D50E0CA010297FC01EE0F58
:100A1000FF1FE80FF91FEE0FFF1FE60FF71FE75B41
:100A2000FC4F808182238083CA0101977C01EE0CF8
:100A3000FF1CE80EF91EEE0CFF1CE60EF71E89E403
:100A400093E0E80EF91ED7018C9182238C938A01E2
:100A5000000F111F040F151F000F111F060F171F86
:100A6000075B1C4FD8018C9128232C93852D825035
:100A70006C2D40810E945301852D81506C2DF70112
:100A800040810E945301852D6C2DD8014C910E940C
:100A900053011F910F91FF90EF90DF90CF90BF9087
:100AA000AF909F908F907F906F905F9008956F921E
:100AB0007F929F92AF92BF92CF92DF92EF92FF927E
:100AC0000F931F93CF93DF9393E0899F30011124FD
:100AD000962C9A94699F8001112458E0E52EF12C00
:100AE000C801039768E070E00E942613882777FD0D
:100AF0008095982F0E94C8110E94B7120E949A11E7
:100B00005B016C01A62FB0E0CD0143E0880F991F77
:100B10004A95E1F7081BE01AF10820E430E002C032
:100B200035952795EA94E2F72095492D50E0CA01C2
:100B3000029769E473E0FC01EE0FFF1FE80FF91F55
:100B4000EE0FFF1FEA0FFB1FE60FF71F80818223C6
:100B50008083CA0101977C01EE0CFF1CE80EF91E90
:100B6000EE0CFF1CEA0EFB1EE60EF71EE701888165
:100B7000822388838A01000F111F040F151F000FA5
:100B8000111F0A0F1B1F060F171FD8018C91282356
:100B90002C93862D83506A2D40810E945301892D0C
:100BA00081506A2D48810E945301892D6A2DE801E8
:100BB00048810E945301DF91CF911F910F91FF90C7
:100BC000EF90DF90CF90BF90AF909F907F906F900D
:100BD00008951F9311E0812F67E00E9457051F5F62
:100BE0001D30C9F7812F6CE00E9457051F5F1B3134
:100BF000C9F780E360E040E00E94530180E361E0D8
:100C000040E00E94530180E362E040E00E94530113
:100C10001F910895AF92BF92CF92DF92EF92FF9211
:100C20000F931F93CF93DF9393E0899FE0011124EB
:100C30009E012150A22E633051F0663009F455C058
:100C40006B3009F4A2C06E3009F04CC1F3C030E043
:100C5000C9010297FC01EE0FFF1FE80FF91FEE0F0D
:100C6000FF1FE75BFC4F808180688083C90101978B
:100C70007C01EE0CFF1CE80EF91EEE0CFF1C89E453
:100C800093E0E80EF91ED7018C91806C8C9389015A
:100C9000000F111F020F131F000F111F075B1C4FC6
:100CA000D8018C9180688C93D70111968C91119703
:100CB000816011968C939E012350822F60E04081C9
:100CC0000E945301DA2CDA948D2D60E0D7014C910B
:100CD0000E9453018A2D60E0E80148810E9453017F
:100CE0008D2D61E0F70141816FC130E0C9010197AD
:100CF0006C01CC0CDD1CC80ED91ECC0CDD1CF60121
:100D0000E75BFC4F818180688183C90102977C0188
:100D1000EE0CFF1CE80EF91EEE0CFF1C8BE493E0BA
:100D2000E80EF91ED7018C9181608C938BE493E0DF
:100D3000C80ED91ED6018C9183608C938901000F57
:100D4000111F020F131F000F111F055B1C4FD8014D
:100D50008C9181608C93BA2CBA948B2D61E0418187
:100D60000E945301FE01E3508E2F62E0D7014C91A7
:100D70000E9453018B2D62E0E60148810E945301DD
:100D80008A2D62E0F80140811FC130E0C90102975D
:100D9000FC01EE0FFF1FE80FF91FEE0FFF1FE75BCF
:100DA000FC4F838180688383C90101977C01EE0C2D
:100DB000FF1CE80EF91EEE0CFF1C89E493E0E80E20
:100DC000F91ED70113968C911397806C13968C9310
:100DD0008901000F111F020F131F000F111F075B66
:100DE0001C4FD80113968C911397806813968C939F
:100DF000D70114968C911497816014968C939E0160
:100E00002350822F63E043810E945301DA2CDA944D
:100E10008D2D63E0D70113964C910E9453018A2DCA
:100E200063E0E8014B810E9453018D2D64E0F701DE
:100E30004481CAC030E0C90101976C01CC0CDD1CB3
:100E4000C80ED91ECC0CDD1C89E493E0C80ED91E57
:100E5000D60114968C911497806814968C93C901CE
:100E600002977C01EE0CFF1CE80EF91EEE0CFF1C35
:100E7000E9E4F3E0EE0EFF1ED70115968C9115976D
:100E8000816015968C93F601858183608583890145
:100E9000000F111F020F131F000F111F075B1C4FC4
:100EA000D80115968C911597816015968C93BA2C64
:100EB000BA948B2D64E044810E945301FE01E350FB
:100EC0008E2F65E0D70115964C910E9453018B2D12
:100ED00065E0E6014D810E9453018A2D65E0F8012D
:100EE000458172C0699F80011124C801039768E0A1
:100EF00070E00E942613882777FD8095982F0E9426
:100F0000C8110E94B7120E949A11D62EA62FB0E0E7
:100F1000CD0163E0880F991F6A95E1F7081B09F07E
:100F2000035042E050E0002E02C0440F551F0A94C7
:100F3000E2F76A2D70E0CB010297FC01EE0FFF1F74
:100F4000E80FF91FEE0FFF1FEA0FFB1FE75BFC4FD7
:100F50008081842B8083CB0101977C01EE0CFF1CE8
:100F6000E80EF91EEE0CFF1CEA0EFB1E29E433E02E
:100F7000E20EF31E87E090E002C0880F991F0A95E9
:100F8000E2F7E7012881282B28838B01000F111F2E
:100F9000060F171F000F111F0A0F1B1F075B1C4FA7
:100FA000D8018C91482B4C938A2D82506D2D408115
:100FB0000E9453018A2D81506D2D48810E9453015A
:100FC0008A2D6D2DE80148810E945301DF91CF9158
:100FD0001F910F91FF90EF90DF90CF90BF90AF9057
:100FE00008950F931F93CF93DF930FE515E0C0E0B3
:100FF000D0E00BC0FE01EF5BFA4F8081F801608109
:101000000E940A0621960E5F1F4F8091870590E08F
:10101000C817D9077CF3DF91CF911F910F910895E5
:101020009AE0909345039093460382E0809387056E
:101030009093410529E030E03093600520935F05EF
:101040008BE0809342053093620520936105E9E4CB
:10105000F3E0108211821282138214821582369676
:1010600085E0E134F807A9F70E94F107089584E0CC
:1010700090E090932D0380932C030E94090180E05F
:1010800062E00E94450188E193E00E948F0180E0C8
:1010900063E00E9445018FE193E00E948F0180E2AE
:1010A0009EE428EC30E0F9013197F1F70197D9F788
:1010B0000E9409010E94100884E690E0A0E0B0E0E0
:1010C00080933C0390933D03A0933E03B0933F0372
:1010D000109232038AE08093450380934603109276
:1010E0004003109241031092420385E08093430332
:1010F00080E060E00E94450180914103805D0E9494
:10110000670180914003805D0E9467018DE060E08F
:101110000E94450188E20E94670180914303805D3F
:101120000E94670189E20E94670110923B030895C3
:10113000809143038150809343038DE060E00E94DF
:10114000450188E20E94670180914303805D0E940F
:10115000670189E20E94670180914303882311F4AB
:101160000E9437080E9409010E9410081092320361
:1011700080E060E00E94450180914103805D0E9413
:10118000670180914003805D0E9467018DE060E00F
:101190000E94450188E20E94670180914303805DBF
:1011A0000E94670189E20E94670110923B0384E07C
:1011B00090E090932D0380932C030E943D02809138
:1011C0002B03609144030E940A0608956F927F9258
:1011D0009F92AF92BF92CF92DF92EF92FF920F93C6
:1011E0001F93CF93DF9393E0899F30011124962CB6
:1011F0009A94699F8001112438E0E32EF12CC801F4
:10120000039768E070E00E942613882777FD809599
:10121000982F0E94C8110E94B7120E949A115B0178
:101220006C01A62FB0E0CD0123E0880F991F2A950D
:10123000E1F7081BE01AF10820E430E002C0359520
:101240002795EA94E2F7492D50E0CA01029769E434
:1012500073E0FC01EE0FFF1FE80FF91FEE0FFF1FF9
:10126000EA0FFB1FE60FF71F8081822B8083CA01E4
:1012700001977C01EE0CFF1CE80EF91EEE0CFF1C22
:10128000EA0EFB1EE60EF71EE7018881822B88839B
:101290008A01000F111F040F151F000F111F0A0FE5
:1012A0001B1F060F171FD8018C91282B2C93862DFE
:1012B00083506A2D40810E945301892D81506A2DEF
:1012C00048810E945301892D6A2DE80148810E94BE
:1012D0005301DF91CF911F910F91FF90EF90DF901D
:1012E000CF90BF90AF909F907F906F9008951F9385
:1012F00011E0812F67E00E94E6081F5F1D30C9F7EB
:10130000812F6CE00E94E6081F5F1B31C9F780E364
:1013100060E04FEF0E94530180E361E04FEF0E94D5
:10132000530180E362E04FEF0E9453011F91089543
:101330002F923F924F925F926F927F928F929F92E5
:10134000AF92BF92CF92DF92EF92FF920F931F93D3
:10135000CF93DF938EE880BB8CE784B98CEF8AB99A
:101360000E9421010E9409010E941C0220E23EE429
:1013700048EC50E0CA010197F1F721503040D1F715
:101380000E9409010E94100884E690E0A0E0B0E00D
:1013900080933C0390933D03A0933E03B0933F039F
:1013A000109232038AE080934503809346031092A3
:1013B0004003109241031092420310923B0385E0D8
:1013C0008093430388EC90E090933A038093390331
:1013D00080E060E00E94450180914103805D0E94B1
:1013E000670180914003805D0E9467018DE060E0AD
:1013F0000E94450188E20E94670180914303805D5D
:101400000E94670189E20E94670180E480937C006A
:1014100087E880937A000E943D0280912B036091BF
:1014200044030E940A0682E0682E712CC8ECD0E0CA
:1014300001E0402E512C14E0812E912CB0E12B2E96
:10144000312C80913C0390913D03A0913E03B091DB
:101450003F030196A11DB11D80933C0390933D0372
:10146000A0933E03B0933F0385369105A105B105D6
:1014700044F010923C0310923D0310923E031092F0
:101480003F0380912C0390912D03049709F432C3FC
:101490000E94C40120914105332727FD309580919A
:1014A0002B0390E02817390709F05BC080914403B3
:1014B00090E020915F05309160052817390709F009
:1014C00050C060918705862F90E0AC01415050409C
:1014D000FA01EE0FFF1FE15AFA4F208120934803D3
:1014E000FA01EF5BFA4F2081209347030297FC013A
:1014F000EE0FFF1FE15AFA4FDC01AF5BBA4F20E05D
:1015000030E00CC080819181938382838C9111960D
:101510008C9311972F5F3F4F329711972417350700
:101520008CF330933403209333036F5F609387050C
:101530000E94F10780914703609148030E94F402E2
:1015400088EE93E0FE013197F1F70197D9F70E94F9
:10155000F0010E943D0280912B03609144030E94A0
:101560000A06709234036092330320C0FD01EF5BE2
:10157000FA4F909141058081981779F4AA0FBB1F0B
:10158000A15ABA4F20915F05309160058D919C91D1
:101590002817390711F40E9498088091330390911D
:1015A000340301969093340380933303A091330363
:1015B000B09134038091870590E00197A817B9078F
:1015C000ACF280913B03813009F06CC00E94770936
:1015D000509238034092370319C0809141059927F2
:1015E00087FD90958217930741F480915F05909154
:1015F0006005079711F40E94980880913703909135
:101600003803019690933803809337032091370372
:10161000309138032D30310504F38DE090E015C092
:1016200080914105992787FD90958217930741F492
:1016300080915F05909160050C9711F40E949808C5
:1016400080913703909138030196909338038093EB
:10165000370320913703309138032B31310504F3E0
:10166000909236038092350316C0809141058031F7
:1016700049F480915F05909160058217930711F4FA
:101680000E949808809135039091360301969093BB
:10169000360380933503209135033091360329308A
:1016A00031051CF380912C0390912D03009709F0D4
:1016B00086C08091870590E0AC0141505040FA010E
:1016C000EE0FFF1FE15AFA4F208120934803FA01E1
:1016D000EF5BFA4F2081209347030297FC01EE0F46
:1016E000FF1FE15AFA4FDC01AF5BBA4F20E030E058
:1016F0000CC080819181938382838C9111968C930D
:1017000011972F5F3F4F32971197241735078CF3AE
:10171000309334032093330380915F0590916005EB
:1017200001979093600580935F05049724F43092AD
:10173000600520925F050E94F10780914703609148
:1017400048030E94F4026091390370913A0388279C
:1017500077FD8095982F0E94C8115B016C0120E0F5
:1017600030E04AEF54E40E9454127B018C0120E0E7
:1017700030E040E85FE30E94961188230CF492C1A8
:10178000C801B70120E03FEF4FE757E40E94501235
:1017900018160CF0A8C1C601B50120E030E040E207
:1017A00051E40E9454120E949A1105C0CE01019783
:1017B000F1F76150704061157105C1F79BC181302F
:1017C000910509F086C08091870590E0AC014150F9
:1017D0005040FA01EE0FFF1FE15AFA4F208120938B
:1017E0004803FA01EF5BFA4F2081209347030297E9
:1017F000FC01EE0FFF1FE15AFA4FDC01AF5BBA4F5D
:1018000020E030E00CC080819181938382838C91B1
:1018100011968C9311972F5F3F4F32971197241792
:1018200035078CF3309334032093330380915F05A5
:101830009091600501969093600580935F054097B5
:1018400024F09092600580925F050E94F1078091DC
:101850004703609148030E94F4026091390370913C
:101860003A03882777FD8095982F0E94C8115B0165
:101870006C0120E030E04AEF54E40E9454127B01F6
:101880008C0120E030E040E85FE30E94961188235D
:101890000CF408C1C801B70120E03FEF4FE757E45F
:1018A0000E94501218160CF01EC1C601B50120E0AE
:1018B00030E040E251E40E9454120E949A1105C0A7
:1018C000CE010197F1F76150704061157105C1F7C4
:1018D00011C18330910509F081C08091870590E0A6
:1018E000AC0141505040FA01EE0FFF1FE15AFA4F90
:1018F000208120934803FA01EF5BFA4F2081209367
:1019000047030297FC01EE0FFF1FE15AFA4FDC017B
:10191000AF5BBA4F20E030E00CC0808191819383AF
:1019200082838C9111968C9311972F5F3F4F329742
:101930001197241735078CF3309334032093330326
:101940008091410581508093410518161CF09BE160
:10195000909341050E94F1078091470360914803ED
:101960000E94F4026091390370913A03882777FD51
:101970008095982F0E94C8115B016C0120E030E037
:101980004AEF54E40E9454127B018C0120E030E0C5
:1019900040E85FE30E94961188230CF483C0C801DD
:1019A000B70120E03FEF4FE757E40E9450121816AE
:1019B0000CF099C0C601B50120E030E040E251E4EE
:1019C0000E9454120E949A1105C0CE010197F1F7AE
:1019D0006150704061157105C1F78CC0029709F024
:1019E00089C08091870590E0AC0141505040FA01D8
:1019F000EE0FFF1FE15AFA4F208120934803FA01AE
:101A0000EF5BFA4F2081209347030297FC01EE0F12
:101A1000FF1FE15AFA4FDC01AF5BBA4F20E030E024
:101A20000CC080819181938382838C9111968C93D9
:101A300011972F5F3F4F32971197241735078CF37B
:101A40003093340320933303809141058F5F80935B
:101A500041058B311CF081E0809341050E94F10724
:101A600080914703609148030E94F402609139031A
:101A700070913A03882777FD8095982F0E94C811AE
:101A80005B016C0120E030E04AEF54E40E94541204
:101A90007B018C0120E030E040E85FE30E9496117A
:101AA00088231CF461E070E022C0C801B70120E087
:101AB0003FEF4FE757E40E9450121816A4F4C601F6
:101AC000B50120E030E040E251E40E9454120E944F
:101AD0009A1105C0CE010197F1F761507040611570
:101AE0007105C1F707C0C801B7010E949A11CB0167
:101AF0000197F1F77D9B0CC00E94770991E09093CC
:101B00003B0388EE93E0FE013197F1F70197D9F797
:101B10007E9B0BC00E94E90588EE93E0FE013197A1
:101B2000F1F70197D9F710923B03499B1CC08091B4
:101B30002C0390912D03019751F40E94980888E896
:101B400093E1FE013197F1F70197D9F77ACC109222
:101B50002D0310922C0388EE93E0FE013197F1F7EC
:101B60000197D9F76ECC1F9B1CC080912C039091DC
:101B70002D03892B51F40E94980888E893E1FE0117
:101B80003197F1F70197D9F75CCC50922D03409231
:101B90002C0388EE93E0FE013197F1F70197D9F716
:101BA00050CC489B1CC080912C0390912D0303972F
:101BB00051F40E94980888E893E1FE013197F1F70B
:101BC0000197D9F73ECC70922D0360922C0388EEDA
:101BD00093E0FE013197F1F70197D9F732CC199BC9
:101BE00030CC80912C0390912D03029751F40E94E8
:101BF000980888E893E1FE013197F1F70197D9F74A
:101C000020CC83E090E090932D0380932C0388EE0A
:101C100093E0FE013197F1F70197D9F712CCA1E1DA
:101C2000B0E0E5E1FEE00C9439133C017F876E875C
:101C30006A01FC0117821682838181FD03C06FEF68
:101C40007FEF6FC39E012F5F3F4F398B288BF301CE
:101C50002381EE85FF8523FD859123FF8191FF87F9
:101C6000EE87882309F45AC3853251F4EE85FF8547
:101C700023FD859123FF8191FF87EE87853229F42B
:101C800090E0B3010E94D314E2CF982F10E0882493
:101C900099241032B0F49B3269F09C3228F49032CF
:101CA00051F0933271F40BC09D3239F0903349F406
:101CB000116028C01260146025C0186023C0106134
:101CC00021C017FD2AC0892F80538A3078F416FF6F
:101CD00006C0FAE09F9E902C1124980E13C03AE0A3
:101CE000839E802C1124880E10620CC09E3221F439
:101CF00016FD14C3106406C09C3611F4106802C0AF
:101D0000983659F4EE85FF8523FD959123FF919137
:101D1000FF87EE87992309F0BCCF892F8554833044
:101D200020F4812F8061905E07C0892F8556833013
:101D300008F09FC1812F8F7E86FD02C076E0972E2E
:101D40006FE3F62EF822953619F4F0E4FF2A07C067
:101D5000963619F420E8F22A02C091109A94F7FE00
:101D60000AC03BE3391518F45CE3B52E02C0B92C68
:101D7000B39427E009C047E0491520F4BB2447E0AD
:101D8000942EF7CF292DBB24C60104969D878C87FE
:101D9000F6016081718182819381AE014F5F5F4F57
:101DA0000B2D0E94E5136C010981202E332400FFC6
:101DB00004C003FD02C01DE209C0F1FE02C01BE227
:101DC00005C0F2FC02C010E001C010E2C1018C703D
:101DD0009070892BB9F1112311F483E001C084E0E4
:101DE000881510F088240AC0881AF3FC07C080E226
:101DF00090E0B3010E94D3148A94C9F7112329F00B
:101E0000812F90E0B3010E94D31423FE03C00CEA9B
:101E100010E00EC000EB10E00BC0E114F10409F07B
:101E2000805290E0B3010E94D3140F5F1F4F05C092
:101E3000EF2CFF24F0E1EF22FF24F80184918823A6
:101E400061F714C1F7FE12C0BC0C24FE04C08A81E5
:101E5000813309F4BA941B141CF0BB24B3942DC035
:101E6000F8E0FB1550F538E0B32E27C0F6FC25C08E
:101E7000892D90E08C159D054CF02CEFC2162FEFAC
:101E8000D20624F030E8F32A01C09A94992049F050
:101E9000E2E0F0E0EC0FFD1FE90DF11D80818033E1
:101EA000A1F3F7FE0AC0B92CB394892D90E0C816AF
:101EB000D90614F0992401C09C18F7FC03C025E052
:101EC00030E009C01C141D041CF021E030E003C008
:101ED00096012F5F3F4F112311F02F5F3F4F992045
:101EE00029F0892D90E00196280F391F882D90E068
:101EF0002817390714F0882401C0821A4F2C552462
:101F0000C20189709070892B39F008C080E290E09E
:101F1000B3010E94D3148A948820C1F7112329F0B9
:101F2000812F90E0B3010E94D31443FE07C008C084
:101F300080E390E0B3010E94D3148A948820C1F713
:101F4000F7FE46C08601D7FE02C000E010E0760131
:101F50000894E11CF11CE01AF10A41E050E04C0F3A
:101F60005D1FE40EF51E26014B185108892D90E0E7
:101F7000AA24BB24A81AB90A5FEF0F3F150729F45A
:101F80008EE290E0B3010E94D314C016D10634F063
:101F9000401651061CF4F701808101C080E3015016
:101FA00010400894E11CF11C0A151B052CF090E070
:101FB000B3010E94D314E0CF0C151D0539F49A81AA
:101FC000963318F4953311F424FE81E390E04BC06E
:101FD0008A81813309F00F7E90E0B3010E94D3140F
:101FE0009920A1F08EE290E0B3010E94D31412E098
:101FF000E1E0F0E0EC0FFD1FE10FF11D1F5F8081BC
:1020000090E0B3010E94D3149A9491F744FC03C06A
:1020100085E690E002C085E490E0B3010E94D3140D
:10202000D7FC05C0C114D10441F404FF06C0D0940C
:10203000C194D108D3948DE201C08BE290E0B3014A
:102040000E94D31480E305C08F5F26EF3FEFC20EDE
:10205000D31E3AE0C316D104BCF790E0B3010E944E
:10206000D314C601C096B3010E94D314CC84DD847E
:1020700052C1933631F0933799F0933509F059C036
:1020800023C0F601808189835E010894A11CB11CE4
:1020900022E030E0C20ED31E21E0E22EF12C12C06D
:1020A000F601A080B18016FD03C06FEF7FEF02C084
:1020B000692D70E022E030E0C20ED31EC5010E94FF
:1020C000C8147C011F7713C0F601A080B18016FDF3
:1020D00003C06FEF7FEF02C0692D70E022E030E0B7
:1020E000C20ED31EC5010E94BD147C01106813FFEF
:1020F00007C01BC080E290E0B3010E94D3148A9411
:10210000882D90E0E816F906A8F30FC0F50117FD39
:10211000859117FF81915F0190E0B3010E94D31474
:1021200081108A940894E108F108E114F10471F730
:10213000F2C0943611F0993689F517FF08C0F60100
:10214000208131814281538184E090E00AC0F60110
:10215000808191819C01442737FD4095542F82E076
:1021600090E0C80ED91E9FE6F92EF12257FF09C054
:1021700050954095309521953F4F4F4F5F4F90E8D8
:10218000F92ACA01B901AE014F5F5F4F2AE030E082
:102190000E94FF14E82EE889EE1A41C0953721F419
:1021A0001F7E2AE030E01CC0197F9F3661F0903717
:1021B00020F4983509F0B2C00FC0903739F0983745
:1021C00009F0ACC004C028E030E00AC0106114FD82
:1021D000146020E130E004C014FD166020E132E01C
:1021E00017FF08C0F601608171818281938144E00C
:1021F00050E008C0F60180819181BC0180E090E050
:1022000042E050E0C40ED51EAE014F5F5F4F0E940A
:10221000FF14E82E5889E51A8FE7F82EF122F6FE12
:102220000BC08EEFF822E91438F4F4FE07C0F2FC7C
:1022300005C09FEEF92202C01E2D01C0192DF4FE2B
:102240000DC0FE01EE0DF11D8081803319F4E9EE21
:10225000FE2208C01F5FF2FE05C003C08F2D8678E6
:1022600009F01F5F0F2DF3FC14C0F0FE0FC018150E
:1022700010F09E2C0BC09E2C980C911A182D06C0A5
:1022800080E290E0B3010E94D3141F5F1815C0F3E1
:1022900004C0181510F4811A01C0882404FF0FC06F
:1022A00080E390E0B3010E94D31402FF1DC001FD42
:1022B00003C088E790E00EC088E590E00BC0802F57
:1022C000867891F001FF02C08BE201C080E2F7FC4A
:1022D0008DE290E0B3010E94D31406C080E390E049
:1022E000B3010E94D3149A94E914C0F3EA94E1E094
:1022F000F0E0EC0FFD1FEE0DF11D808190E0B301C9
:102300000E94D314EE2091F706C080E290E0B30162
:102310000E94D3148A948820C1F799CCF301668176
:102320007781CB016196E2E10C9455136CD008F4EF
:1023300081E0089594D088F09F5790F0B92F9927A5
:10234000B751A0F0D1F0660F771F881F991F1AF0C0
:10235000BA95C9F712C0B13081F09BD0B1E00895B1
:1023600098C0672F782F8827B85F39F0B93FCCF332
:10237000869577956795B395D9F73EF490958095B6
:10238000709561957F4F8F4F9F4F0895E89409C0D6
:1023900097FB3EF490958095709561957F4F8F4F98
:1023A0009F4F9923A9F0F92F96E9BB279395F695AE
:1023B000879577956795B795F111F8CFFAF4BB0F2C
:1023C00011F460FF1BC06F5F7F4F8F4F9F4F16C090
:1023D000882311F096E911C0772321F09EE8872F1A
:1023E000762F05C0662371F096E8862F70E060E0D6
:1023F0002AF09A95660F771F881FDAF7880F96954F
:10240000879597F90895990F0008550FAA0BE0E8F2
:10241000FEEF16161706E807F907C0F012161306A6
:10242000E407F50798F0621B730B840B950B39F4E6
:102430000A2661F0232B242B252B21F408950A264C
:1024400009F4A140A6958FEF811D811D089557FDC8
:102450009058440F551F59F05F3F71F04795880F12
:1024600097FB991F61F09F3F79F0879508951216A9
:1024700013061406551FF2CF4695F1DF08C0161655
:1024800017061806991FF1CF869571056105089406
:102490000895E894BB2766277727CB0197F908951D
:1024A000B2DF08F48FEF08950BD0A8C099D028F0C0
:1024B0009ED018F0952309F061C08FC01124EACF97
:1024C000C6DFA0F3959FD1F3950F50E0551F629F93
:1024D000F001729FBB27F00DB11D639FAA27F00D7D
:1024E000B11DAA1F649F6627B00DA11D661F829FA4
:1024F0002227B00DA11D621F739FB00DA11D621F89
:10250000839FA00D611D221F749F3327A00D611DA5
:10251000231F849F600D211D822F762F6A2F112487
:102520009F5750408AF0E1F088234AF0EE0FFF1FDA
:10253000BB1F661F771F881F91505040A9F79E3F11
:10254000510570F01BC0A6CF5F3FECF3983EDCF363
:10255000869577956795B795F795E7959F5FC1F74E
:10256000FE2B880F911D9695879597F9089557D062
:1025700020F09F3708F48ECF07C021C097F99F67DE
:1025800080E870E060E00895882371F4772321F0FB
:102590009850872B762F07C0662311F499270DC01A
:1025A0009051862B70E060E02AF09A95660F771FB5
:1025B000881FDAF7880F9695879597F908959F3FBA
:1025C00031F0915020F4879577956795B795880FEE
:1025D000911D9695879597F908959FEF80EC089542
:1025E00000240A94161617061806090608950024F2
:1025F0000A9412161306140605060895092E03946C
:10260000000C11F4882352F0BB0F40F4BF2B11F4DF
:1026100060FF04C06F5F7F4F8F4F9F4F08951FDF94
:10262000A0F0BEE7B91788F4BB279F3860F41616F0
:10263000B11D672F782F8827985FF7CF86957795FC
:102640006795B11D93959639C8F3089597FB092EA8
:1026500007260AD077FD04D043D006D000201AF414
:10266000709561957F4F0895F6F7909581959F4FEE
:1026700008952F923F924F925F926F927F928F9226
:102680009F92AF92BF92CF92DF92EF92FF920F9301
:102690001F93CF93DF93CDB7DEB7CA1BDB0B0FB60B
:1026A000F894DEBF0FBECDBF09942A8839884888C8
:1026B0005F846E847D848C849B84AA84B984C8845E
:1026C000DF80EE80FD800C811B81AA81B981CE0F55
:1026D000D11D0FB6F894DEBF0FBECDBFED0108953A
:1026E000AA1BBB1B51E107C0AA1FBB1FA617B70738
:1026F00010F0A61BB70B881F991F5A95A9F7809554
:102700009095BC01CD010895A0E0B0E0EAE8F3E1C6
:102710000C944113EC01A880B980CA80DB80A1141D
:10272000B104C104D10441F484E2A82E89EDB82E8D
:102730008BE5C82E87E0D82EC601B5012DE133EF19
:1027400041E050E00E947C1527EA31E440E050E08F
:102750000E945D157B018C01C601B5012DE133EFAF
:1027600041E050E00E947C15CA01B9012CEE34EF23
:102770004FEF5FEF0E945D156E0D7F1D801F911F53
:1027800097FF04C06150704080409048688379830F
:102790008A839B839B013F77C901CDB7DEB7EAE00F
:1027A0000C945D130E94841308958EE293E00E94BE
:1027B00084130895A0E0B0E080932E0390932F033C
:1027C000A0933003B09331030895283008F027E038
:1027D0003327DA01990F311D87FD9160009661055D
:1027E000710539F432602E5F3D9330E32A95E1F7AD
:1027F00008959F3F30F080387105610509F03C5F16
:102800003C5F3D93913008F08068911DDF93CF933A
:102810001F930F93FF92EF92192F987F9695E92FB0
:1028200096959695E90FFF27E25FFE4F992733278C
:10283000EE24FF24A701E70105900894079428F4EB
:10284000360FE71EF81E491F511D660F771F881FA0
:10285000991F0694A1F70590079428F4E70EF81E37
:10286000491F561FC11D770F881F991F661F0694A9
:10287000A1F70590079428F4F80E491F561FC71FAB
:10288000D11D880F991F661F771F0694A1F7059029
:10289000079420F4490F561FC71FD81F990F661FB2
:1028A000771F881F0694A9F784911095177041F03F
:1028B000D695C79557954795F794E7941A95C1F71C
:1028C000E4EBF0E068941590159135916591959140
:1028D00005907FE27395E118F10A430B560BC90B83
:1028E000D009C0F7E10CF11E431F561FC91FD01DB0
:1028F0007EF4703311F48A95E6CFE894015030F0FD
:10290000080F0AF40027021708F4202F2395022F3E
:102910007A3328F079E37D932A95E9F710C07D9307
:102920002A9589F606949795679537951795179484
:10293000E118F10A430B560BC90BD00998F0239507
:102940007E9173957A3308F070E37C932013B8F787
:102950007E9170617D9330F0839571E37D9370E398
:102960002A95E1F71124EF90FF900F911F91CF91DD
:10297000DF91992787FD90950895FC01059061509E
:1029800070400110D8F7809590958E0F9F1F089585
:10299000FC016150704001900110D8F7809590952E
:1029A0008E0F9F1F08950F931F93CF93DF938C017A
:1029B000EB018B8181FF1BC082FF0DC02E813F8107
:1029C0008C819D812817390764F4E881F98101938E
:1029D000F983E88306C0E885F985802F0995892B5E
:1029E00031F48E819F8101969F838E8302C00FEF09
:1029F0001FEFC801DF91CF911F910F910895FA0148
:102A0000AA27283051F1203181F1E8946F936E7F2D
:102A10006E5F7F4F8F4F9F4FAF4FB1E03ED0B4E01E
:102A20003CD0670F781F891F9A1FA11D680F791F5F
:102A30008A1F911DA11D6A0F711D811D911DA11D70
:102A400020D009F468943F912AE0269F1124301980
:102A5000305D3193DEF6CF010895462F4770405D1B
:102A60004193B3E00FD0C9F7F6CF462F4F70405DCA
:102A70004A3318F0495D31FD4052419302D0A9F725
:102A8000EACFB4E0A6959795879577956795BA951F
:102A9000C9F700976105710508959B01AC010A2EE5
:102AA00006945795479537952795BA95C9F7620FBC
:102AB000731F841F951FA01D0895629FD001739FEF
:102AC000F001829FE00DF11D649FE00DF11D929FCA
:102AD000F00D839FF00D749FF00D659FF00D992709
:102AE000729FB00DE11DF91F639FB00DE11DF91F2D
:102AF000BD01CF011124089597FB092E05260ED0A4
:102B000057FD04D014D00AD0001C38F450954095DD
:102B1000309521953F4F4F4F5F4F0895F6F79095B1
:102B20008095709561957F4F8F4F9F4F0895A1E2DB
:102B30001A2EAA1BBB1BFD010DC0AA1FBB1FEE1F37
:102B4000FF1FA217B307E407F50720F0A21BB30B82
:102B5000E40BF50B661F771F881F991F1A9469F7FE
:102B600060957095809590959B01AC01BD01CF015A
:062B70000895F894FFCF68
:102B7600000000000000005F0000000700070014CE
:102B86007F147F14242A7F2A12231308646236498D
:102B96005522500005030000001C2241000041227E
:102BA6001C0014083E081408083E080800503000AF
:102BB60000080808080800606000002010080402E9
:102BC6003E5149453E00427F4000426151494621FF
:102BD60041454B311814127F1027454545393C4A6B
:102BE60049493001710905033649494936064949BB
:102BF600291E003636000000563600000814224111
:102C06000014141414140041221408020151090678
:102C1600324979413E7E1111117E7F494949363E3E
:102C2600414141227F4141221C7F494949417F0957
:102C36000909013E4149497A7F0808087F00417F1A
:102C460041002040413F017F081422417F4040401F
:102C5600407F020C027F7F0408107F3E4141413EC7
:102C66007F090909063E4151215E7F091929464619
:102C76004949493101017F01013F4040403F1F2042
:102C860040201F3F4038403F631408146307087014
:102C960008076151494543007F414100020408107D
:102CA600200041417F0004020102044040404040B0
:102CB600000102040020545454787F4844443838B4
:102CC60044444420384444487F3854545418087EB9
:102CD6000901020C5252523E7F0804047800447DDA
:102CE60040002040443D007F1028440000417F40C2
:102CF600007C041804787C0804047838444444387A
:102D06007C14141408081414187C7C08040408485D
:102D160054545420043F4440203C4040207C1C2016
:102D260040201C3C4030403C44281028440C505065
:102D3600503C4464544C44000836410000007F0077
:102D46000000413608001008081008784641467809
:102D56002A2A57456C6C636F6D652A2A200020531A
:102D66006E616B652047616D65200053617261205D
:102D76005261646461646920002049443A204E38F7
:102D860037373933333320002047616D6520002003
:102D96002020202020204F7665720032040001009A
:022DA60000002B
:00000001FF