:100000000C9456000C9473000C9473000C947300C1
:100010000C9473000C9473000C9473000C94730094
:100020000C9473000C9473000C9473000C94730084
:100030000C9473000C9473000C9473000C94730074
:100040000C9473000C9473000C9473000C94730064
:100050000C9473000C9473000C9473000C94730054
:100060000C9473000C9473000C9473000C94730044
:100070000C9473000C9473000C9473000C94730034
:100080000C9473000C9473000C9473000C94730024
:100090000C9473000C9473000C9473000C94730014
:1000A0000C9473000C9473000C94730011241FBE05
:1000B000CFEFDAE0DEBFCDBF13E0A0E0B1E0E0E8D3
:1000C000FEE102C005900D92AA37B107D9F715E0FD
:1000D000AAE7B3E001C01D92A03DB107E1F70E947D
:1000E00041080C943E0F0C940000613011F42D98DF
:1000F00001C02D9A90E087FF02C02E9A01C02E9871
:100100008F988F9A9F5F983011F0880FF4CF0895E1
:10011000CF93DF938CE061E00E94750080E861E09E
:100120000E947500C0E0D0E080E060E00E947500B1
:10013000219681E0C83FD807B9F7DF91CF910895A4
:100140005F982C9882E0982F9A95F1F72C9A8A95CF
:10015000F1F781E261E00E94750088EC61E00E94A5
:10016000750086E061E00E94750083E161E00E9415
:10017000750080E261E00E9475008CE061E00E9401
:1001800075000E94880008951F93182F862F8064A1
:1001900061E00E947500812F806861E00E94750017
:1001A0001F9108951F93142F0E94C4002D9A80E080
:1001B00017FF02C02E9A01C02E988F988F9A8F5FDA
:1001C000883011F0110FF4CF1F9108950F931F93F2
:1001D000CF93DF93805226E0829F80011124055B3C
:1001E0001E4F90E00196EC01CC0FDD1FC80FD91F08
:1001F000CC0FDD1FC55BDE4FF80181918F0160E000
:100200000E9475000C171D07B9F7DF91CF911F9160
:100210000F910895CF93DF93EC0103C00E94E60095
:10022000219688818823D1F7DF91CF91089580E4CA
:1002300080937C0087E880937A00089590917C00F9
:100240008770892B80937C0080917A0080648093F2
:100250007A0080917A0084FFFCCF80917A008061DF
:1002600080937A002091780030917900C901089537
:100270008EE880BB8CE784B98CEF8AB9089580E062
:1002800060E00E94C40080E091E00E940A0180E0EA
:1002900061E00E94C4008EE091E00E940A0180E0CB
:1002A00063E00E94C4008BE191E00E940A0180E0BB
:1002B00064E00E94C40089E291E00E940A0108956E
:1002C0009091830380918A03890F8F5F80938A03C3
:1002D0008A3039F080918803980F9F5F909388034C
:1002E00005C01092880381E08093890380E060E07C
:1002F0000E94C40080918903805D0E94E600809185
:100300008803805D0E94E600089580E00E941E013F
:100310008A3F910518F484E690E011C080E00E94C5
:100320001E018050924018F488EC90E008C080E0F4
:100330000E941E018E5E924038F484EF91E090930B
:10034000820380938103089580E00E941E01805003
:10035000944030F480E293E0909382038093810391
:1003600008956F927F928F929F92AF92BF92CF9299
:10037000DF92EF92FF920F931F93CF93DF9393E05F
:10038000899FA0011124642E6A94633051F0663075
:1003900009F46BC06B3009F4DCC06E3009F0A1C108
:1003A0003CC1262D30E0C90102976C01CC0CDD1C4C
:1003B000C80ED91ECC0CDD1C81E993E0C80ED91EF5
:1003C000E60188818F738883C90101977C01EE0C57
:1003D000FF1CE80EF91EEE0CFF1CE1E9F3E0EE0E47
:1003E000FF1EE70188818F7388838901000F111F29
:1003F000020F131F000F111F0E0F1F1FF801808126
:100400008F738083E60189818E7F8983F7018181E3
:100410008E7F8183E801B980EEEFBE22B982BDEF05
:100420009B2E940E892D60E0E60148810E94D20047
:10043000A62CAA948A2D60E0F70140810E94D20088
:10044000862D60E0E80148810E94D200892D61E09C
:10045000F60141810E94D2008A2D61E0E7014981C5
:100460000E94D200862D61E03AC1262D30E0C901FC
:1004700002977C01EE0CFF1CE80EF91EEE0CFF1C2F
:10048000D701AF56BC4F11968C9111978F7711966B
:100490008C931197C90101978C01000F111F080F50
:1004A000191F000F111F61E9A62E63E0B62EA00EE2
:1004B000B11EF50181818F778183F901EE0FFF1F56
:1004C000E20FF31FEE0FFF1F21E9C22E23E0D22E11
:1004D000CE0EDF1EE60189818F77898383E993E061
:1004E000E80EF91EE70188818C7F88830D561C4F2A
:1004F000E80188818C7F8883ED56FC4F90808CEFDB
:10050000982290826DEF762E740E872D61E0119601
:100510004C910E94D200862C8A94882D61E0E501DE
:1005200049810E94D200862D61E0F60141810E943E
:10053000D200872D62E0E70148810E94D200882D19
:1005400062E0F80140810E94D200862D62E0492DD0
:100550002EC1262D30E0C90102976C01CC0CDD1CA8
:10056000C80ED91ECC0CDD1C81E993E0C80ED91E43
:10057000E6018B818F738B83C90101977C01EE0C9F
:10058000FF1CE80EF91EEE0CFF1CE1E9F3E0EE0E95
:10059000FF1EE7018B818F738B838901000F111F71
:1005A000020F131F000F111F0E0F1F1FF801838171
:1005B0008F738383E6018C818E7F8C83F701848126
:1005C0008E7F8483E801BC80EEEFBE22BC82FDEF0B
:1005D0009F2E940E892D63E0E6014B810E94D2008C
:1005E000A62CAA948A2D63E0F70143810E94D200D1
:1005F000862D63E0E8014B810E94D200892D64E0E2
:10060000F60144810E94D2008A2D64E0E7014C810A
:100610000E94D200862D64E062C0262D30E0C90120
:1006200002976C01CC0CDD1CC80ED91ECC0CDD1C55
:10063000E1E9F3E0CE0EDF1EE6018C818F778C833B
:10064000C90101977C01EE0CFF1CE80EF91EEE0CAF
:10065000FF1CEE0EFF1EF70184818F7784838901D2
:10066000000F111F020F131F000F111F0F561C4FF9
:10067000E8018C818F778C83F60185818C7F85835F
:10068000E7018D818C7F8D83F801B580FCEFBF225F
:10069000E801BD82BDEF9B2E940E892D64E0F6012A
:1006A00044810E94D200A62CAA948A2D64E0E7011E
:1006B0004C810E94D200862D64E0F80144810E94A2
:1006C000D200892D65E0E6014D810E94D2008A2D7D
:1006D00065E0F70145810E94D200862D65E04B2D33
:1006E00066C0699F80011124C801039768E070E02B
:1006F0000E94230E882777FD8095982F0E94C50CB5
:100700000E94B40D0E94970CE62E70E0CB01A3E08E
:10071000880F991FAA95E1F7081B09F0035027E0FD
:1007200030E002C0220F331F0A95E2F72095462DD4
:1007300050E0CA010297DC01AA0FBB1FA80FB91F26
:10074000AA0FBB1FA60FB71FAF56BC4F8C918223B9
:100750008C93CA0101978C01000F111F080F191FFC
:10076000000F111F060F171F0F561C4FE80188813D
:1007700082238883FA01EE0FFF1FE40FF51FEE0FAF
:10078000FF1FE60FF71FEF56FC4FF080F222F082BA
:10079000862D82506E2D4C910E94D200862D815064
:1007A0006E2D48810E94D200862D6E2D4F2D0E9405
:1007B000D200DF91CF911F910F91FF90EF90DF90CA
:1007C000CF90BF90AF909F908F907F906F90089543
:1007D0006F927F929F92AF92BF92CF92DF92EF92F1
:1007E000FF920F931F9393E0899F30011124699F1B
:1007F00080011124B80133E0759567953A95E1F7CA
:10080000882777FD8095982F0E94C50C0E94B40D13
:100810000E94970C6B017C01A62EBB24C50123E02E
:10082000880F991F2A95E1F7081B88E090E0801B4C
:10083000910920E430E002C0359527958A95E2F7CA
:100840002095462D50E0CA01029761E973E0DC0172
:10085000AA0FBB1FA80FB91FAA0FBB1FAA0DBB1D54
:10086000A60FB71F8C9182238C93CA0101978C012C
:10087000000F111F080F191F000F111F0A0D1B1D5C
:10088000060F171FF801808182238083FA01EE0F83
:10089000FF1FE40FF51FEE0FFF1FEA0DFB1DE60F14
:1008A000F71FB080B222B082862D82506C2D4C9101
:1008B0000E94D200862D81506C2DF80140810E944B
:1008C000D200862D6C2D4B2D0E94D2001F910F91CE
:1008D000FF90EF90DF90CF90BF90AF909F907F9070
:1008E0006F9008951F9311E0812F67E00E94E80345
:1008F0001F5F1D30C9F7812F6CE00E94E8031F5F66
:100900001B31C9F780E360E040E00E94D20080E341
:1009100061E040E00E94D20080E362E040E00E949B
:10092000D2001F910895BF92CF92DF92EF92FF9273
:100930000F931F93CF93DF9393E0899FE0011124DE
:100940009E012150B22E633051F0663009F454C03C
:100950006B3009F4A2C06E3009F047C1F2C030E03C
:10096000C9010297FC01EE0FFF1FE80FF91FEE0F00
:10097000FF1FEF56FC4F808180688083C90101977B
:100980008C01000F111F080F191F000F111F0F56A8
:100990001C4FD8018C91806C8C937901EE0CFF1C5C
:1009A000E20EF31EEE0CFF1C21E933E0E20EF31E13
:1009B000D7018C9180688C93D8011196DC90B1E0BE
:1009C000DB2AD8011196DC929E012350822F60E031
:1009D00040810E94D200CB2CCA948C2D60E0D801BB
:1009E0004C910E94D2008B2D60E0F70140810E9463
:1009F000D2008C2D61E0F7C030E0C90101977C0185
:100A0000EE0CFF1CE80EF91EEE0CFF1CD701AF56D2
:100A1000BC4F11968C911197806811968C93119709
:100A2000C90102978C01000F111F080F191F000F39
:100A3000111F0D561C4FF80180818160808383E96E
:100A400093E0E80EF91EF701808183608083F9014D
:100A5000EE0FFF1FE20FF31FEE0FFF1FED56FC4FCF
:100A6000D08021E0D22AD082CB2CCA948C2D61E098
:100A700011964C910E94D200DE01A3508A2F62E0B1
:100A8000F80140810E94D2008C2D62E0D7014C9188
:100A90000E94D2008B2D62E0A6C030E0C90102970F
:100AA000FC01EE0FFF1FE80FF91FEE0FFF1FEF56BF
:100AB000FC4F838180688383C90101978C01000FFB
:100AC000111F080F191F000F111F0F561C4FD801BF
:100AD00013968C911397806C13968C937901EE0C7E
:100AE000FF1CE20EF31EEE0CFF1C21E933E0E20EC8
:100AF000F31ED70113968C911397806813968C93ED
:100B0000D8011496DC90B1E0DB2AD8011496DC926F
:100B10009E012350822F63E043810E94D200CB2CA0
:100B2000CA948C2D63E0D80113964C910E94D20098
:100B30008B2D63E0F70143810E94D2008C2D64E08D
:100B400052C030E0C90101977C01EE0CFF1CE80E99
:100B5000F91EEE0CFF1C81E993E0E80EF91ED701A7
:100B600014968C911497806814968C931497C901ED
:100B700002978C01000F111F080F191F000F111F82
:100B80000F561C4FF80185818160858315968C91E5
:100B90001597836015968C931597F901EE0FFF1F3B
:100BA000E20FF31FEE0FFF1FEF56FC4FD58021E041
:100BB000D22AD582CB2CCA948C2D64E014964C9109
:100BC0000E94D200DE01A3508A2F65E0F801458122
:100BD0000E94D2008C2D65E0D70115964C910E94A1
:100BE000D2008B2D65E04D2D70C0699F80011124CE
:100BF000C801039768E070E00E94230E882777FD04
:100C00008095982F0E94C50C0E94B40D0E94970CED
:100C1000D62EE62EFF24C701F3E0880F991FFA9520
:100C2000E1F7202F281B09F0235042E050E0022E6C
:100C300002C0440F551F0A94E2F76B2D70E0CB0100
:100C40000297DC01AA0FBB1FA80FB91FAA0FBB1F79
:100C5000AE0DBF1DAF56BC4F8C91842B8C93CB0136
:100C600001978C01000F111F080F191F000F111F92
:100C70000E0D1F1D0F561C4F87E090E002C0880F1D
:100C8000991F2A95E2F7F8012081282B2083FB0188
:100C9000EE0FFF1FE60FF71FEE0FFF1FEE0DFF1DFC
:100CA000EF56FC4FF080F42AF0828B2D82506D2D90
:100CB0004C910E94D2008B2D81506D2DD8014C910A
:100CC0000E94D2008B2D6D2D4F2D0E94D200DF91FE
:100CD000CF911F910F91FF90EF90DF90CF90BF9039
:100CE00008950F931F93CF93DF9307EA15E0C0E0B9
:100CF000D0E00BC0FE01E757FA4F8081F801608118
:100D00000E94930421960E5F1F4F8091CF0590E0C3
:100D1000C817D9077CF3DF91CF911F910F910895E8
:100D20009AE090938D0390938E0382E08093CF0599
:100D30009093890529E030E03093A8052093A7051A
:100D40008BE080938A053093AA052093A905E1E9F9
:100D5000F3E0108211821282138214821582369679
:100D600085E0E938F807A9F70E947106089584E044
:100D7000809373030E94880080E062E00E94C400B8
:100D800088E391E00E940A0180E063E00E94C400D1
:100D90008FE391E00E940A0180E29EE428EC30E0BB
:100DA000F9013197F1F70197D9F70E9488000E9465
:100DB000900684E690E0A0E0B0E0809384039093F6
:100DC0008503A0938603B093870310927A038AE089
:100DD00080938D0380938E03109288031092890371
:100DE00010928A0385E080938B0380E060E00E948C
:100DF000C40080E30E94E60080E30E94E6008DE0EC
:100E000060E00E94C40088E20E94E60085E30E9440
:100E1000E60089E20E94E6001092830308950F9392
:100E20001F9310918B03012F015000938B038DE0D2
:100E300060E00E94C40088E20E94E600812F815D8C
:100E40000E94E60089E20E94E600002311F40E945D
:100E5000B7061F910F910895209174038091840328
:100E600090918503820F911D0E94A00E0E949B0EFF
:100E70006BE170E00E94230E0196AA2797FDA095D2
:100E8000BA2FBC01CD010E94C50C0E94B40D0E9476
:100E9000970C609374030E949B0E60E170E00E94C7
:100EA000230E0196AA2797FDA095BA2FBC01CD016C
:100EB0000E94C50C0E94B40D0E94970C962F60935F
:100EC0008C03E0917403EB3138F6603128F664301E
:100ED00018F280918303813029F521E030E040E071
:100EE00050E06E2F70E06217730721F4973011F411
:100EF0004F5F5F4F2F5F3F4F2D303105A1F74115F9
:100F0000510509F0A9CF6217730721F49C3011F441
:100F10004F5F5F4F2F5F3F4F2B313105A1F7452BBF
:100F200009F09ACF8E2F692F0E94930408956F9233
:100F30007F929F92AF92BF92CF92DF92EF92FF92F9
:100F40000F931F9393E0899F30011124699F8001C3
:100F50001124B80133E0759567953A95E1F7882734
:100F600077FD8095982F0E94C50C0E94B40D0E94B9
:100F7000970C6B017C01A62EBB24C50123E0880FD2
:100F8000991F2A95E1F7081B88E090E0801B9109E2
:100F900020E430E002C0359527958A95E2F7462D8A
:100FA00050E0CA01029761E973E0DC01AA0FBB1FA0
:100FB000A80FB91FAA0FBB1FAA0DBB1DA60FB71FF5
:100FC0008C91822B8C93CA0101978C01000F111F09
:100FD000080F191F000F111F0A0D1B1D060F171FE9
:100FE000F8018081822B8083FA01EE0FFF1FE40F4E
:100FF000F51FEE0FFF1FEA0DFB1DE60FF71FB08078
:10100000B22AB082862D82506C2D4C910E94D20063
:10101000862D81506C2DF80140810E94D200862DD2
:101020006C2D4B2D0E94D2001F910F91FF90EF90DD
:10103000DF90CF90BF90AF909F907F906F9008957A
:101040001F9311E0812F67E00E9497071F5F1D30FB
:10105000C9F7812F6CE00E9497071F5F1B31C9F70A
:1010600080E360E04FEF0E94D20080E361E04FEF49
:101070000E94D20080E362E04FEF0E94D2001F91F5
:1010800008952F923F924F925F926F927F928F922C
:101090009F92AF92BF92CF92DF92EF92FF920F9307
:1010A0001F93CF93DF938EE880BB8CE784B98CEFDE
:1010B0008AB90E94A0000E9488000E943F0120E29D
:1010C0003EE448EC50E0CA010197F1F7215030406E
:1010D000D1F70E9488000E94900684E690E0A0E08C
:1010E000B0E08093840390938503A0938603B0932C
:1010F000870310927A038AE080938D0380938E0396
:10110000109288031092890310928A03109283032D
:1011100085E080938B0388EC90E09093820380932A
:10112000810380E060E00E94C40080918903805DBB
:101130000E94E60080918803805D0E94E6008DE0B9
:1011400060E00E94C40088E20E94E60080918B0368
:10115000805D0E94E60089E20E94E60080E48093C0
:101160007C0087E880937A009924939482E0482E4B
:10117000512CC8ECD0E001E0202E312C1BE1812E57
:10118000B4E06B2E712C8091840390918503A09123
:101190008603B09187030196A11DB11D809384033E
:1011A00090938503A0938603B0938703815A964852
:1011B000A140B04044F01092840310928503109235
:1011C00086031092870380917303843041F08091ED
:1011D0007A03882321F40E942C0790927A0380914D
:1011E0007303843009F41FC30E948501909189051F
:1011F00080917403981709F055C080918C0390E09A
:101200002091A7053091A8052817390709F04AC091
:101210006091CF05862F90E0AC0141505040FA011B
:10122000EE0FFF1FE955FA4F208120939003FA013A
:10123000E757FA4F208120938F030297FC01EE0FAE
:10124000FF1FE955FA4FDC01A757BA4F20E030E005
:101250000CC080819181938382838C9111968C93B1
:1012600011972F5F3F4F32971197241735078CF353
:1012700030937C0320937B036F5F6093CF050E94C4
:10128000710680918F03609190030E94B10188EEF6
:1012900093E0FE013197F1F70197D9F70E946001C1
:1012A0000E942C0750927C0340927B0320C0FD01DA
:1012B000E757FA4F909189058081981779F4AA0F22
:1012C000BB1FA955BA4F2091A7053091A8058D9154
:1012D0009C912817390711F40E940F0780917B0316
:1012E00090917C03019690937C0380937B03A09163
:1012F0007B03B0917C038091CF0590E00197A81704
:10130000B907ACF280918303813009F068C00E9474
:1013100020083092800320927F0317C080918905B6
:1013200090E08217930741F48091A7059091A8055A
:10133000079711F40E940F0780917F03909180031B
:1013400001969093800380937F0320917F033091D7
:1013500080032D30310514F38DE090E013C08091AF
:10136000890590E08217930741F48091A705909139
:10137000A8050C9711F40E940F0780917F039091AC
:10138000800301969093800380937F0320917F03D5
:10139000309180032B31310514F370927E036092FB
:1013A0007D0316C080918905803149F48091A7059D
:1013B0009091A8058217930711F40E940F0780915E
:1013C0007D0390917E03019690937E0380937D032D
:1013D00020917D0330917E03293031051CF38091EB
:1013E0007303882309F088C08091CF0590E0AC0199
:1013F00041505040FA01EE0FFF1FE955FA4F20818E
:1014000020939003FA01E757FA4F208120938F032E
:101410000297FC01EE0FFF1FE955FA4FDC01A757B9
:10142000BA4F20E030E00CC08081918193838283A9
:101430008C9111968C9311972F5F3F4F3297119794
:10144000241735078CF330937C0320937B03809122
:10145000A7059091A80501979093A8058093A705EB
:10146000049734F480E190E09093A8058093A70559
:101470000E94710680918F03609190030E94B101D8
:101480006091810370918203882777FD8095982F62
:101490000E94C50C5B016C0120E030E04AEF54E48F
:1014A0000E94510D7B018C0120E030E040E85FE3B9
:1014B0000E94930C88230CF48EC1C801B70120E070
:1014C0003FEF4FE757E40E944D0D18160CF0A4C1F2
:1014D000C601B50120E030E040E251E40E94510D28
:1014E0000E94970C05C0CE010197F1F76150704042
:1014F00061157105C1F797C1813009F086C08091EF
:10150000CF0590E0AC0141505040FA01EE0FFF1FB3
:10151000E955FA4F208120939003FA01E757FA4FDB
:10152000208120938F030297FC01EE0FFF1FE955E6
:10153000FA4FDC01A757BA4F20E030E00CC08081A1
:101540009181938382838C9111968C9311972F5F55
:101550003F4F32971197241735078CF330937C0354
:1015600020937B038091A7059091A8050196909305
:10157000A8058093A705409724F07092A805609273
:10158000A7050E94710680918F03609190030E94CD
:10159000B1016091810370918203882777FD809566
:1015A000982F0E94C50C5B016C0120E030E04AEFEF
:1015B00054E40E94510D7B018C0120E030E040E8B2
:1015C0005FE30E94930C88230CF405C1C801B701A6
:1015D00020E03FEF4FE757E40E944D0D18160CF046
:1015E0001BC1C601B50120E030E040E251E40E9499
:1015F000510D0E94970C05C0CE010197F1F7615083
:10160000704061157105C1F70EC1833009F080C0CB
:101610008091CF0590E0AC0141505040FA01EE0FAF
:10162000FF1FE955FA4F208120939003FA01E757F5
:10163000FA4F208120938F030297FC01EE0FFF1FCA
:10164000E955FA4FDC01A757BA4F20E030E00CC053
:1016500080819181938382838C9111968C931197D1
:101660002F5F3F4F32971197241735078CF3309334
:101670007C0320937B0380918905815080938905A9
:10168000882311F4809289050E94710680918F034E
:10169000609190030E94B101609181037091820377
:1016A000882777FD8095982F0E94C50C5B016C01FF
:1016B00020E030E04AEF54E40E94510D7B018C01A0
:1016C00020E030E040E85FE30E94930C88230CF4B4
:1016D00082C0C801B70120E03FEF4FE757E40E9406
:1016E0004D0D18160CF098C0C601B50120E030E091
:1016F00040E251E40E94510D0E94970C05C0CE01BA
:101700000197F1F76150704061157105C1F78BC009
:10171000823009F088C08091CF0590E0AC01415043
:101720005040FA01EE0FFF1FE955FA4F2081209338
:101730009003FA01E757FA4F208120938F03029715
:10174000FC01EE0FFF1FE955FA4FDC01A757BA4F16
:1017500020E030E00CC080819181938382838C9162
:1017600011968C9311972F5F3F4F32971197241743
:1017700035078CF330937C0320937B03809189059C
:101780008F5F809389058B3110F0909289050E94BC
:10179000710680918F03609190030E94B101609166
:1017A000810370918203882777FD8095982F0E948E
:1017B000C50C5B016C0120E030E04AEF54E40E946C
:1017C000510D7B018C0120E030E040E85FE30E9496
:1017D000930C88231CF461E070E022C0C801B701BB
:1017E00020E03FEF4FE757E40E944D0D1816A4F498
:1017F000C601B50120E030E040E251E40E94510D05
:101800000E94970C05C0CE010197F1F7615070401E
:1018100061157105C1F707C0C801B7010E94970C97
:10182000CB010197F1F77D9B0BC00E94200890929D
:10183000830388EE93E0FE013197F1F70197D9F722
:101840007E9B0BC00E94720488EE93E0FE013197EC
:10185000F1F70197D9F710928303499B17C0809144
:101860007303813049F40E940F0788E893E1FE0179
:101870003197F1F70197D9F71092730388EE93E04F
:10188000FE013197F1F70197D9F77DCC1F9B17C067
:1018900080917303882349F40E940F0788E893E13D
:1018A000FE013197F1F70197D9F79092730388EE13
:1018B00093E0FE013197F1F70197D9F764CC489B8B
:1018C00018C080917303833049F40E940F0788E8A1
:1018D00093E1FE013197F1F70197D9F792E09093E8
:1018E000730388EE93E0FE013197F1F70197D9F782
:1018F0004ACC199B48CC80917303823049F40E94F2
:101900000F0788E893E1FE013197F1F70197D9F7C6
:1019100023E02093730388EE93E0FE013197F1F703
:101920000197D9F730CC6CD008F481E0089594D0B9
:1019300088F09F5790F0B92F9927B751A0F0D1F0B8
:10194000660F771F881F991F1AF0BA95C9F712C042
:10195000B13081F09BD0B1E0089598C0672F782F07
:101960008827B85F39F0B93FCCF3869577956795AE
:10197000B395D9F73EF490958095709561957F4F1A
:101980008F4F9F4F0895E89409C097FB3EF49095C0
:101990008095709561957F4F8F4F9F4F9923A9F048
:1019A000F92F96E9BB279395F695879577956795D7
:1019B000B795F111F8CFFAF4BB0F11F460FF1BC01B
:1019C0006F5F7F4F8F4F9F4F16C0882311F096E9AE
:1019D00011C0772321F09EE8872F762F05C066235C
:1019E00071F096E8862F70E060E02AF09A95660F15
:1019F000771F881FDAF7880F9695879597F90895CE
:101A0000990F0008550FAA0BE0E8FEEF161617060F
:101A1000E807F907C0F012161306E407F50798F077
:101A2000621B730B840B950B39F40A2661F0232B90
:101A3000242B252B21F408950A2609F4A140A6950C
:101A40008FEF811D811D089557FD9058440F551F3C
:101A500059F05F3F71F04795880F97FB991F61F030
:101A60009F3F79F087950895121613061406551FA7
:101A7000F2CF4695F1DF08C0161617061806991F13
:101A8000F1CF86957105610508940895E894BB2708
:101A900066277727CB0197F90895B2DF08F48FEF17
:101AA00008950BD0A8C099D028F09ED018F09523A7
:101AB00009F061C08FC01124EACFC6DFA0F3959F63
:101AC000D1F3950F50E0551F629FF001729FBB2725
:101AD000F00DB11D639FAA27F00DB11DAA1F649FD1
:101AE0006627B00DA11D661F829F2227B00DA11D84
:101AF000621F739FB00DA11D621F839FA00D611D0A
:101B0000221F749F3327A00D611D231F849F600D2A
:101B1000211D822F762F6A2F11249F5750408AF063
:101B2000E1F088234AF0EE0FFF1FBB1F661F771FEF
:101B3000881F91505040A9F79E3F510570F01BC07F
:101B4000A6CF5F3FECF3983EDCF3869577956795DB
:101B5000B795F795E7959F5FC1F7FE2B880F911D0D
:101B60009695879597F9089557D020F09F3708F4F8
:101B70008ECF07C021C097F99F6780E870E060E0D2
:101B80000895882371F4772321F09850872B762FBE
:101B900007C0662311F499270DC09051862B70E081
:101BA00060E02AF09A95660F771F881FDAF7880F92
:101BB0009695879597F908959F3F31F0915020F4BD
:101BC000879577956795B795880F911D9695879519
:101BD00097F908959FEF80EC089500240A94161653
:101BE000170618060906089500240A94121613060B
:101BF000140605060895092E0394000C11F4882399
:101C000052F0BB0F40F4BF2B11F460FF04C06F5FB4
:101C10007F4F8F4F9F4F08951FDFA0F0BEE7B9178A
:101C200088F4BB279F3860F41616B11D672F782FF4
:101C30008827985FF7CF869577956795B11D93951F
:101C40009639C8F3089597FB092E07260AD077FD29
:101C500004D00CD006D000201AF4709561957F4F07
:101C60000895F6F7909581959F4F0895AA1BBB1B89
:101C700051E107C0AA1FBB1FA617B70710F0A61B8C
:101C8000B70B881F991F5A95A9F780959095BC01AD
:101C9000CD010895A0E0B0E0E0E5FEE00C94ED0E8B
:101CA000EC01A880B980CA80DB80A114B104C10412
:101CB000D10441F484E2A82E89EDB82E8BE5C82E1C
:101CC00087E0D82EC601B5012DE133EF41E050E0A9
:101CD0000E94CA0E27EA31E440E050E00E94AB0EB9
:101CE0007B018C01C601B5012DE133EF41E050E0ED
:101CF0000E94CA0ECA01B9012CEE34EF4FEF5FEF1C
:101D00000E94AB0E6E0D7F1D801F911F97FF04C0B8
:101D10006150704080409048688379838A839B83B8
:101D20009B013F77C901CDB7DEB7EAE00C94090FFC
:101D30000E944A0E089585E793E00E944A0E089596
:101D4000A0E0B0E08093750390937603A0937703AF
:101D5000B09378030895629FD001739FF001829F32
:101D6000E00DF11D649FE00DF11D929FF00D839F2A
:101D7000F00D749FF00D659FF00D9927729FB00DC7
:101D8000E11DF91F639FB00DE11DF91FBD01CF01DA
:101D90001124089597FB092E05260ED057FD04D077
:101DA0004BD00AD0001C38F45095409530952195C1
:101DB0003F4F4F4F5F4F0895F6F790958095709580
:101DC00061957F4F8F4F9F4F08952F923F924F9273
:101DD0005F926F927F928F929F92AF92BF92CF92BB
:101DE000DF92EF92FF920F931F93CF93DF93CDB7C4
:101DF000DEB7CA1BDB0B0FB6F894DEBF0FBECDBF3C
:101E000009942A88398848885F846E847D848C840C
:101E10009B84AA84B984C884DF80EE80FD800C8115
:101E20001B81AA81B981CE0FD11D0FB6F894DEBFF8
:101E30000FBECDBFED010895A1E21A2EAA1BBB1B58
:101E4000FD010DC0AA1FBB1FEE1FFF1FA217B30786
:101E5000E407F50720F0A21BB30BE40BF50B661F9C
:101E6000771F881F991F1A9469F760957095809560
:101E700090959B01AC01BD01CF010895F894FFCF6F
:101E80002A2A57456C6C636F6D652A2A20002053FF
:101E90006E616B652047616D652000204861746943
:101EA0006D2044616E69656C002049443A204E38CB
:101EB00037373933333320002047616D65200020E8
:101EC0002020202020204F766572000000000000B6
:101ED000000000002F000000000700070000147F32
:101EE000147F1400242A7F2A12006264081323003E
:101EF000364955225000000503000000001C224115
:101F000000000041221C000014083E0814000808CC
:101F10003E0808000000A06000000808080808004B
:101F20000060600000002010080402003E51494596
:101F30003E0000427F40000042615149460021417D
:101F4000454B31001814127F1000274545453900D4
:101F50003C4A4949300001710905030036494949A5
:101F60003600064949291E0000363600000000569A
:101F70003600000008142241000014141414140048
:101F8000004122140800020151090600324959514A
:101F90003E007C1211127C007F49494936003E41C7
:101FA000414122007F4141221C007F4949494100B3
:101FB0007F09090901003E4149497A007F08080864
:101FC0007F0000417F4100002040413F01007F0829
:101FD000142241007F40404040007F020C027F00FD
:101FE0007F0408107F003E4141413E007F090909FE
:101FF00006003E4151215E007F09192946004649ED
:102000004949310001017F0101003F4040403F004C
:102010001F2040201F003F4038403F006314081439
:102020006300070870080700615149454300007FBD
:1020300041410000552A552A55000041417F0000CA
:10204000040201020400404040404000000102043C
:1020500000002054545478007F48444438003844E9
:1020600044442000384444487F00385454541800F5
:10207000087E0901020018A4A4A47C007F080404BF
:10208000780000447D4000004080847D00007F1087
:102090002844000000417F4000007C0418047800C0
:1020A0007C0804047800384444443800FC24242488
:1020B000180018242418FC007C0804040800485464
:1020C00054542000043F444020003C4040207C0009
:1020D0001C2040201C003C4030403C00442810287C
:1020E00044001CA0A0A07C004464544C441414146C
:0A20F0001414140432010000000073
:00000001FF
